{
  "_format": "hh-sol-artifact-1",
  "contractName": "ZendeskNFT",
  "sourceName": "contracts/ZendeskNFT.sol",
  "abi": [
    {
      "inputs": [
        {
          "internalType": "address",
          "name": "initialOwner",
          "type": "address"
        }
      ],
      "stateMutability": "nonpayable",
      "type": "constructor"
    },
    {
      "inputs": [
        {
          "internalType": "address",
          "name": "sender",
          "type": "address"
        },
        {
          "internalType": "uint256",
          "name": "tokenId",
          "type": "uint256"
        },
        {
          "internalType": "address",
          "name": "owner",
          "type": "address"
        }
      ],
      "name": "ERC721IncorrectOwner",
      "type": "error"
    },
    {
      "inputs": [
        {
          "internalType": "address",
          "name": "operator",
          "type": "address"
        },
        {
          "internalType": "uint256",
          "name": "tokenId",
          "type": "uint256"
        }
      ],
      "name": "ERC721InsufficientApproval",
      "type": "error"
    },
    {
      "inputs": [
        {
          "internalType": "address",
          "name": "approver",
          "type": "address"
        }
      ],
      "name": "ERC721InvalidApprover",
      "type": "error"
    },
    {
      "inputs": [
        {
          "internalType": "address",
          "name": "operator",
          "type": "address"
        }
      ],
      "name": "ERC721InvalidOperator",
      "type": "error"
    },
    {
      "inputs": [
        {
          "internalType": "address",
          "name": "owner",
          "type": "address"
        }
      ],
      "name": "ERC721InvalidOwner",
      "type": "error"
    },
    {
      "inputs": [
        {
          "internalType": "address",
          "name": "receiver",
          "type": "address"
        }
      ],
      "name": "ERC721InvalidReceiver",
      "type": "error"
    },
    {
      "inputs": [
        {
          "internalType": "address",
          "name": "sender",
          "type": "address"
        }
      ],
      "name": "ERC721InvalidSender",
      "type": "error"
    },
    {
      "inputs": [
        {
          "internalType": "uint256",
          "name": "tokenId",
          "type": "uint256"
        }
      ],
      "name": "ERC721NonexistentToken",
      "type": "error"
    },
    {
      "inputs": [
        {
          "internalType": "address",
          "name": "owner",
          "type": "address"
        }
      ],
      "name": "OwnableInvalidOwner",
      "type": "error"
    },
    {
      "inputs": [
        {
          "internalType": "address",
          "name": "account",
          "type": "address"
        }
      ],
      "name": "OwnableUnauthorizedAccount",
      "type": "error"
    },
    {
      "anonymous": false,
      "inputs": [
        {
          "indexed": true,
          "internalType": "address",
          "name": "owner",
          "type": "address"
        },
        {
          "indexed": true,
          "internalType": "address",
          "name": "approved",
          "type": "address"
        },
        {
          "indexed": true,
          "internalType": "uint256",
          "name": "tokenId",
          "type": "uint256"
        }
      ],
      "name": "Approval",
      "type": "event"
    },
    {
      "anonymous": false,
      "inputs": [
        {
          "indexed": true,
          "internalType": "address",
          "name": "owner",
          "type": "address"
        },
        {
          "indexed": true,
          "internalType": "address",
          "name": "operator",
          "type": "address"
        },
        {
          "indexed": false,
          "internalType": "bool",
          "name": "approved",
          "type": "bool"
        }
      ],
      "name": "ApprovalForAll",
      "type": "event"
    },
    {
      "anonymous": false,
      "inputs": [
        {
          "indexed": true,
          "internalType": "address",
          "name": "previousOwner",
          "type": "address"
        },
        {
          "indexed": true,
          "internalType": "address",
          "name": "newOwner",
          "type": "address"
        }
      ],
      "name": "OwnershipTransferred",
      "type": "event"
    },
    {
      "anonymous": false,
      "inputs": [
        {
          "indexed": true,
          "internalType": "address",
          "name": "from",
          "type": "address"
        },
        {
          "indexed": true,
          "internalType": "address",
          "name": "to",
          "type": "address"
        },
        {
          "indexed": true,
          "internalType": "uint256",
          "name": "tokenId",
          "type": "uint256"
        }
      ],
      "name": "Transfer",
      "type": "event"
    },
    {
      "inputs": [
        {
          "internalType": "address",
          "name": "to",
          "type": "address"
        },
        {
          "internalType": "uint256",
          "name": "tokenId",
          "type": "uint256"
        }
      ],
      "name": "approve",
      "outputs": [],
      "stateMutability": "nonpayable",
      "type": "function"
    },
    {
      "inputs": [
        {
          "internalType": "address",
          "name": "owner",
          "type": "address"
        }
      ],
      "name": "balanceOf",
      "outputs": [
        {
          "internalType": "uint256",
          "name": "",
          "type": "uint256"
        }
      ],
      "stateMutability": "view",
      "type": "function"
    },
    {
      "inputs": [
        {
          "internalType": "uint256",
          "name": "tokenId",
          "type": "uint256"
        }
      ],
      "name": "getApproved",
      "outputs": [
        {
          "internalType": "address",
          "name": "",
          "type": "address"
        }
      ],
      "stateMutability": "view",
      "type": "function"
    },
    {
      "inputs": [
        {
          "internalType": "address",
          "name": "owner",
          "type": "address"
        },
        {
          "internalType": "address",
          "name": "operator",
          "type": "address"
        }
      ],
      "name": "isApprovedForAll",
      "outputs": [
        {
          "internalType": "bool",
          "name": "",
          "type": "bool"
        }
      ],
      "stateMutability": "view",
      "type": "function"
    },
    {
      "inputs": [
        {
          "internalType": "address",
          "name": "recipient",
          "type": "address"
        }
      ],
      "name": "mint",
      "outputs": [
        {
          "internalType": "uint256",
          "name": "",
          "type": "uint256"
        }
      ],
      "stateMutability": "nonpayable",
      "type": "function"
    },
    {
      "inputs": [],
      "name": "name",
      "outputs": [
        {
          "internalType": "string",
          "name": "",
          "type": "string"
        }
      ],
      "stateMutability": "view",
      "type": "function"
    },
    {
      "inputs": [],
      "name": "owner",
      "outputs": [
        {
          "internalType": "address",
          "name": "",
          "type": "address"
        }
      ],
      "stateMutability": "view",
      "type": "function"
    },
    {
      "inputs": [
        {
          "internalType": "uint256",
          "name": "tokenId",
          "type": "uint256"
        }
      ],
      "name": "ownerOf",
      "outputs": [
        {
          "internalType": "address",
          "name": "",
          "type": "address"
        }
      ],
      "stateMutability": "view",
      "type": "function"
    },
    {
      "inputs": [],
      "name": "renounceOwnership",
      "outputs": [],
      "stateMutability": "nonpayable",
      "type": "function"
    },
    {
      "inputs": [
        {
          "internalType": "address",
          "name": "from",
          "type": "address"
        },
        {
          "internalType": "address",
          "name": "to",
          "type": "address"
        },
        {
          "internalType": "uint256",
          "name": "tokenId",
          "type": "uint256"
        }
      ],
      "name": "safeTransferFrom",
      "outputs": [],
      "stateMutability": "nonpayable",
      "type": "function"
    },
    {
      "inputs": [
        {
          "internalType": "address",
          "name": "from",
          "type": "address"
        },
        {
          "internalType": "address",
          "name": "to",
          "type": "address"
        },
        {
          "internalType": "uint256",
          "name": "tokenId",
          "type": "uint256"
        },
        {
          "internalType": "bytes",
          "name": "data",
          "type": "bytes"
        }
      ],
      "name": "safeTransferFrom",
      "outputs": [],
      "stateMutability": "nonpayable",
      "type": "function"
    },
    {
      "inputs": [
        {
          "internalType": "address",
          "name": "operator",
          "type": "address"
        },
        {
          "internalType": "bool",
          "name": "approved",
          "type": "bool"
        }
      ],
      "name": "setApprovalForAll",
      "outputs": [],
      "stateMutability": "nonpayable",
      "type": "function"
    },
    {
      "inputs": [
        {
          "internalType": "bytes4",
          "name": "interfaceId",
          "type": "bytes4"
        }
      ],
      "name": "supportsInterface",
      "outputs": [
        {
          "internalType": "bool",
          "name": "",
          "type": "bool"
        }
      ],
      "stateMutability": "view",
      "type": "function"
    },
    {
      "inputs": [],
      "name": "symbol",
      "outputs": [
        {
          "internalType": "string",
          "name": "",
          "type": "string"
        }
      ],
      "stateMutability": "view",
      "type": "function"
    },
    {
      "inputs": [
        {
          "internalType": "uint256",
          "name": "tokenId",
          "type": "uint256"
        }
      ],
      "name": "tokenURI",
      "outputs": [
        {
          "internalType": "string",
          "name": "",
          "type": "string"
        }
      ],
      "stateMutability": "view",
      "type": "function"
    },
    {
      "inputs": [
        {
          "internalType": "address",
          "name": "from",
          "type": "address"
        },
        {
          "internalType": "address",
          "name": "to",
          "type": "address"
        },
        {
          "internalType": "uint256",
          "name": "tokenId",
          "type": "uint256"
        }
      ],
      "name": "transferFrom",
      "outputs": [],
      "stateMutability": "nonpayable",
      "type": "function"
    },
    {
      "inputs": [
        {
          "internalType": "address",
          "name": "newOwner",
          "type": "address"
        }
      ],
      "name": "transferOwnership",
      "outputs": [],
      "stateMutability": "nonpayable",
      "type": "function"
    }
  ],
  "bytecode": "0x60806040523480156200001157600080fd5b506040516200273e3803806200273e833981810160405281019062000037919062000288565b806040518060400160405280600a81526020017f5a656e6465736b4e4654000000000000000000000000000000000000000000008152506040518060400160405280600481526020017f5a4e4654000000000000000000000000000000000000000000000000000000008152508160009081620000b5919062000534565b508060019081620000c7919062000534565b505050600073ffffffffffffffffffffffffffffffffffffffff168173ffffffffffffffffffffffffffffffffffffffff16036200013f5760006040517f1e4fbdf70000000000000000000000000000000000000000000000000000000081526004016200013691906200062c565b60405180910390fd5b62000150816200015860201b60201c565b505062000649565b6000600660009054906101000a900473ffffffffffffffffffffffffffffffffffffffff16905081600660006101000a81548173ffffffffffffffffffffffffffffffffffffffff021916908373ffffffffffffffffffffffffffffffffffffffff1602179055508173ffffffffffffffffffffffffffffffffffffffff168173ffffffffffffffffffffffffffffffffffffffff167f8be0079c531659141344cd1fd0a4f28419497f9722a3daafe3b4186f6b6457e060405160405180910390a35050565b600080fd5b600073ffffffffffffffffffffffffffffffffffffffff82169050919050565b6000620002508262000223565b9050919050565b620002628162000243565b81146200026e57600080fd5b50565b600081519050620002828162000257565b92915050565b600060208284031215620002a157620002a06200021e565b5b6000620002b18482850162000271565b91505092915050565b600081519050919050565b7f4e487b7100000000000000000000000000000000000000000000000000000000600052604160045260246000fd5b7f4e487b7100000000000000000000000000000000000000000000000000000000600052602260045260246000fd5b600060028204905060018216806200033c57607f821691505b602082108103620003525762000351620002f4565b5b50919050565b60008190508160005260206000209050919050565b60006020601f8301049050919050565b600082821b905092915050565b600060088302620003bc7fffffffffffffffffffffffffffffffffffffffffffffffffffffffffffffffff826200037d565b620003c886836200037d565b95508019841693508086168417925050509392505050565b6000819050919050565b6000819050919050565b6000620004156200040f6200040984620003e0565b620003ea565b620003e0565b9050919050565b6000819050919050565b6200043183620003f4565b6200044962000440826200041c565b8484546200038a565b825550505050565b600090565b6200046062000451565b6200046d81848462000426565b505050565b5b8181101562000495576200048960008262000456565b60018101905062000473565b5050565b601f821115620004e457620004ae8162000358565b620004b9846200036d565b81016020851015620004c9578190505b620004e1620004d8856200036d565b83018262000472565b50505b505050565b600082821c905092915050565b60006200050960001984600802620004e9565b1980831691505092915050565b6000620005248383620004f6565b9150826002028217905092915050565b6200053f82620002ba565b67ffffffffffffffff8111156200055b576200055a620002c5565b5b62000567825462000323565b6200057482828562000499565b600060209050601f831160018114620005ac576000841562000597578287015190505b620005a3858262000516565b86555062000613565b601f198416620005bc8662000358565b60005b82811015620005e657848901518255600182019150602085019450602081019050620005bf565b8683101562000606578489015162000602601f891682620004f6565b8355505b6001600288020188555050505b505050505050565b620006268162000243565b82525050565b60006020820190506200064360008301846200061b565b92915050565b6120e580620006596000396000f3fe608060405234801561001057600080fd5b506004361061010b5760003560e01c806370a08231116100a2578063a22cb46511610071578063a22cb465146102b8578063b88d4fde146102d4578063c87b56dd146102f0578063e985e9c514610320578063f2fde38b146103505761010b565b806370a0823114610242578063715018a6146102725780638da5cb5b1461027c57806395d89b411461029a5761010b565b806323b872dd116100de57806323b872dd146101aa57806342842e0e146101c65780636352211e146101e25780636a627842146102125761010b565b806301ffc9a71461011057806306fdde0314610140578063081812fc1461015e578063095ea7b31461018e575b600080fd5b61012a600480360381019061012591906118b8565b61036c565b6040516101379190611900565b60405180910390f35b61014861044e565b60405161015591906119ab565b60405180910390f35b61017860048036038101906101739190611a03565b6104e0565b6040516101859190611a71565b60405180910390f35b6101a860048036038101906101a39190611ab8565b6104fc565b005b6101c460048036038101906101bf9190611af8565b610512565b005b6101e060048036038101906101db9190611af8565b610614565b005b6101fc60048036038101906101f79190611a03565b610634565b6040516102099190611a71565b60405180910390f35b61022c60048036038101906102279190611b4b565b610646565b6040516102399190611b87565b60405180910390f35b61025c60048036038101906102579190611b4b565b61067e565b6040516102699190611b87565b60405180910390f35b61027a610738565b005b61028461074c565b6040516102919190611a71565b60405180910390f35b6102a2610776565b6040516102af91906119ab565b60405180910390f35b6102d260048036038101906102cd9190611bce565b610808565b005b6102ee60048036038101906102e99190611d43565b61081e565b005b61030a60048036038101906103059190611a03565b61083b565b60405161031791906119ab565b60405180910390f35b61033a60048036038101906103359190611dc6565b6108a4565b6040516103479190611900565b60405180910390f35b61036a60048036038101906103659190611b4b565b610938565b005b60007f80ac58cd000000000000000000000000000000000000000000000000000000007bffffffffffffffffffffffffffffffffffffffffffffffffffffffff1916827bffffffffffffffffffffffffffffffffffffffffffffffffffffffff1916148061043757507f5b5e139f000000000000000000000000000000000000000000000000000000007bffffffffffffffffffffffffffffffffffffffffffffffffffffffff1916827bffffffffffffffffffffffffffffffffffffffffffffffffffffffff1916145b806104475750610446826109be565b5b9050919050565b60606000805461045d90611e35565b80601f016020809104026020016040519081016040528092919081815260200182805461048990611e35565b80156104d65780601f106104ab576101008083540402835291602001916104d6565b820191906000526020600020905b8154815290600101906020018083116104b957829003601f168201915b5050505050905090565b60006104eb82610a28565b506104f582610ab0565b9050919050565b61050e8282610509610aed565b610af5565b5050565b600073ffffffffffffffffffffffffffffffffffffffff168273ffffffffffffffffffffffffffffffffffffffff16036105845760006040517f64a0ae9200000000000000000000000000000000000000000000000000000000815260040161057b9190611a71565b60405180910390fd5b60006105988383610593610aed565b610b07565b90508373ffffffffffffffffffffffffffffffffffffffff168173ffffffffffffffffffffffffffffffffffffffff161461060e578382826040517f64283d7b00000000000000000000000000000000000000000000000000000000815260040161060593929190611e66565b60405180910390fd5b50505050565b61062f8383836040518060200160405280600081525061081e565b505050565b600061063f82610a28565b9050919050565b6000610650610d21565b6007600081548092919061066390611ecc565b919050555061067482600754610da8565b6007549050919050565b60008073ffffffffffffffffffffffffffffffffffffffff168273ffffffffffffffffffffffffffffffffffffffff16036106f15760006040517f89c62b640000000000000000000000000000000000000000000000000000000081526004016106e89190611a71565b60405180910390fd5b600360008373ffffffffffffffffffffffffffffffffffffffff1673ffffffffffffffffffffffffffffffffffffffff168152602001908152602001600020549050919050565b610740610d21565b61074a6000610ea1565b565b6000600660009054906101000a900473ffffffffffffffffffffffffffffffffffffffff16905090565b60606001805461078590611e35565b80601f01602080910402602001604051908101604052809291908181526020018280546107b190611e35565b80156107fe5780601f106107d3576101008083540402835291602001916107fe565b820191906000526020600020905b8154815290600101906020018083116107e157829003601f168201915b5050505050905090565b61081a610813610aed565b8383610f67565b5050565b610829848484610512565b610835848484846110d6565b50505050565b606061084682610a28565b50600061085161128d565b90506000815111610871576040518060200160405280600081525061089c565b8061087b846112a4565b60405160200161088c929190611f50565b6040516020818303038152906040525b915050919050565b6000600560008473ffffffffffffffffffffffffffffffffffffffff1673ffffffffffffffffffffffffffffffffffffffff16815260200190815260200160002060008373ffffffffffffffffffffffffffffffffffffffff1673ffffffffffffffffffffffffffffffffffffffff16815260200190815260200160002060009054906101000a900460ff16905092915050565b610940610d21565b600073ffffffffffffffffffffffffffffffffffffffff168173ffffffffffffffffffffffffffffffffffffffff16036109b25760006040517f1e4fbdf70000000000000000000000000000000000000000000000000000000081526004016109a99190611a71565b60405180910390fd5b6109bb81610ea1565b50565b60007f01ffc9a7000000000000000000000000000000000000000000000000000000007bffffffffffffffffffffffffffffffffffffffffffffffffffffffff1916827bffffffffffffffffffffffffffffffffffffffffffffffffffffffff1916149050919050565b600080610a3483611372565b9050600073ffffffffffffffffffffffffffffffffffffffff168173ffffffffffffffffffffffffffffffffffffffff1603610aa757826040517f7e273289000000000000000000000000000000000000000000000000000000008152600401610a9e9190611b87565b60405180910390fd5b80915050919050565b60006004600083815260200190815260200160002060009054906101000a900473ffffffffffffffffffffffffffffffffffffffff169050919050565b600033905090565b610b0283838360016113af565b505050565b600080610b1384611372565b9050600073ffffffffffffffffffffffffffffffffffffffff168373ffffffffffffffffffffffffffffffffffffffff1614610b5557610b54818486611574565b5b600073ffffffffffffffffffffffffffffffffffffffff168173ffffffffffffffffffffffffffffffffffffffff1614610be657610b976000856000806113af565b6001600360008373ffffffffffffffffffffffffffffffffffffffff1673ffffffffffffffffffffffffffffffffffffffff168152602001908152602001600020600082825403925050819055505b600073ffffffffffffffffffffffffffffffffffffffff168573ffffffffffffffffffffffffffffffffffffffff1614610c69576001600360008773ffffffffffffffffffffffffffffffffffffffff1673ffffffffffffffffffffffffffffffffffffffff168152602001908152602001600020600082825401925050819055505b846002600086815260200190815260200160002060006101000a81548173ffffffffffffffffffffffffffffffffffffffff021916908373ffffffffffffffffffffffffffffffffffffffff160217905550838573ffffffffffffffffffffffffffffffffffffffff168273ffffffffffffffffffffffffffffffffffffffff167fddf252ad1be2c89b69c2b068fc378daa952ba7f163c4a11628f55a4df523b3ef60405160405180910390a4809150509392505050565b610d29610aed565b73ffffffffffffffffffffffffffffffffffffffff16610d4761074c565b73ffffffffffffffffffffffffffffffffffffffff1614610da657610d6a610aed565b6040517f118cdaa7000000000000000000000000000000000000000000000000000000008152600401610d9d9190611a71565b60405180910390fd5b565b600073ffffffffffffffffffffffffffffffffffffffff168273ffffffffffffffffffffffffffffffffffffffff1603610e1a5760006040517f64a0ae92000000000000000000000000000000000000000000000000000000008152600401610e119190611a71565b60405180910390fd5b6000610e2883836000610b07565b9050600073ffffffffffffffffffffffffffffffffffffffff168173ffffffffffffffffffffffffffffffffffffffff1614610e9c5760006040517f73c6ac6e000000000000000000000000000000000000000000000000000000008152600401610e939190611a71565b60405180910390fd5b505050565b6000600660009054906101000a900473ffffffffffffffffffffffffffffffffffffffff16905081600660006101000a81548173ffffffffffffffffffffffffffffffffffffffff021916908373ffffffffffffffffffffffffffffffffffffffff1602179055508173ffffffffffffffffffffffffffffffffffffffff168173ffffffffffffffffffffffffffffffffffffffff167f8be0079c531659141344cd1fd0a4f28419497f9722a3daafe3b4186f6b6457e060405160405180910390a35050565b600073ffffffffffffffffffffffffffffffffffffffff168273ffffffffffffffffffffffffffffffffffffffff1603610fd857816040517f5b08ba18000000000000000000000000000000000000000000000000000000008152600401610fcf9190611a71565b60405180910390fd5b80600560008573ffffffffffffffffffffffffffffffffffffffff1673ffffffffffffffffffffffffffffffffffffffff16815260200190815260200160002060008473ffffffffffffffffffffffffffffffffffffffff1673ffffffffffffffffffffffffffffffffffffffff16815260200190815260200160002060006101000a81548160ff0219169083151502179055508173ffffffffffffffffffffffffffffffffffffffff168373ffffffffffffffffffffffffffffffffffffffff167f17307eab39ab6107e8899845ad3d59bd9653f200f220920489ca2b5937696c31836040516110c99190611900565b60405180910390a3505050565b60008373ffffffffffffffffffffffffffffffffffffffff163b1115611287578273ffffffffffffffffffffffffffffffffffffffff1663150b7a0261111a610aed565b8685856040518563ffffffff1660e01b815260040161113c9493929190611fc9565b6020604051808303816000875af192505050801561117857506040513d601f19601f82011682018060405250810190611175919061202a565b60015b6111fc573d80600081146111a8576040519150601f19603f3d011682016040523d82523d6000602084013e6111ad565b606091505b5060008151036111f457836040517f64a0ae920000000000000000000000000000000000000000000000000000000081526004016111eb9190611a71565b60405180910390fd5b805181602001fd5b63150b7a0260e01b7bffffffffffffffffffffffffffffffffffffffffffffffffffffffff1916817bffffffffffffffffffffffffffffffffffffffffffffffffffffffff19161461128557836040517f64a0ae9200000000000000000000000000000000000000000000000000000000815260040161127c9190611a71565b60405180910390fd5b505b50505050565b606060405180602001604052806000815250905090565b6060600060016112b384611638565b01905060008167ffffffffffffffff8111156112d2576112d1611c18565b5b6040519080825280601f01601f1916602001820160405280156113045781602001600182028036833780820191505090505b509050600082602001820190505b600115611367578080600190039150507f3031323334353637383961626364656600000000000000000000000000000000600a86061a8153600a858161135b5761135a612057565b5b04945060008503611312575b819350505050919050565b60006002600083815260200190815260200160002060009054906101000a900473ffffffffffffffffffffffffffffffffffffffff169050919050565b80806113e85750600073ffffffffffffffffffffffffffffffffffffffff168273ffffffffffffffffffffffffffffffffffffffff1614155b1561151c5760006113f884610a28565b9050600073ffffffffffffffffffffffffffffffffffffffff168373ffffffffffffffffffffffffffffffffffffffff161415801561146357508273ffffffffffffffffffffffffffffffffffffffff168173ffffffffffffffffffffffffffffffffffffffff1614155b8015611476575061147481846108a4565b155b156114b857826040517fa9fbf51f0000000000000000000000000000000000000000000000000000000081526004016114af9190611a71565b60405180910390fd5b811561151a57838573ffffffffffffffffffffffffffffffffffffffff168273ffffffffffffffffffffffffffffffffffffffff167f8c5be1e5ebec7d5bd14f71427d1e84f3dd0314c0f7b2291e5b200ac8c7c3b92560405160405180910390a45b505b836004600085815260200190815260200160002060006101000a81548173ffffffffffffffffffffffffffffffffffffffff021916908373ffffffffffffffffffffffffffffffffffffffff16021790555050505050565b61157f83838361178b565b61163357600073ffffffffffffffffffffffffffffffffffffffff168373ffffffffffffffffffffffffffffffffffffffff16036115f457806040517f7e2732890000000000000000000000000000000000000000000000000000000081526004016115eb9190611b87565b60405180910390fd5b81816040517f177e802f00000000000000000000000000000000000000000000000000000000815260040161162a929190612086565b60405180910390fd5b505050565b600080600090507a184f03e93ff9f4daa797ed6e38ed64bf6a1f0100000000000000008310611696577a184f03e93ff9f4daa797ed6e38ed64bf6a1f010000000000000000838161168c5761168b612057565b5b0492506040810190505b6d04ee2d6d415b85acef810000000083106116d3576d04ee2d6d415b85acef810000000083816116c9576116c8612057565b5b0492506020810190505b662386f26fc10000831061170257662386f26fc1000083816116f8576116f7612057565b5b0492506010810190505b6305f5e100831061172b576305f5e100838161172157611720612057565b5b0492506008810190505b612710831061175057612710838161174657611745612057565b5b0492506004810190505b60648310611773576064838161176957611768612057565b5b0492506002810190505b600a8310611782576001810190505b80915050919050565b60008073ffffffffffffffffffffffffffffffffffffffff168373ffffffffffffffffffffffffffffffffffffffff161415801561184357508273ffffffffffffffffffffffffffffffffffffffff168473ffffffffffffffffffffffffffffffffffffffff161480611804575061180384846108a4565b5b8061184257508273ffffffffffffffffffffffffffffffffffffffff1661182a83610ab0565b73ffffffffffffffffffffffffffffffffffffffff16145b5b90509392505050565b6000604051905090565b600080fd5b600080fd5b60007fffffffff0000000000000000000000000000000000000000000000000000000082169050919050565b61189581611860565b81146118a057600080fd5b50565b6000813590506118b28161188c565b92915050565b6000602082840312156118ce576118cd611856565b5b60006118dc848285016118a3565b91505092915050565b60008115159050919050565b6118fa816118e5565b82525050565b600060208201905061191560008301846118f1565b92915050565b600081519050919050565b600082825260208201905092915050565b60005b8381101561195557808201518184015260208101905061193a565b60008484015250505050565b6000601f19601f8301169050919050565b600061197d8261191b565b6119878185611926565b9350611997818560208601611937565b6119a081611961565b840191505092915050565b600060208201905081810360008301526119c58184611972565b905092915050565b6000819050919050565b6119e0816119cd565b81146119eb57600080fd5b50565b6000813590506119fd816119d7565b92915050565b600060208284031215611a1957611a18611856565b5b6000611a27848285016119ee565b91505092915050565b600073ffffffffffffffffffffffffffffffffffffffff82169050919050565b6000611a5b82611a30565b9050919050565b611a6b81611a50565b82525050565b6000602082019050611a866000830184611a62565b92915050565b611a9581611a50565b8114611aa057600080fd5b50565b600081359050611ab281611a8c565b92915050565b60008060408385031215611acf57611ace611856565b5b6000611add85828601611aa3565b9250506020611aee858286016119ee565b9150509250929050565b600080600060608486031215611b1157611b10611856565b5b6000611b1f86828701611aa3565b9350506020611b3086828701611aa3565b9250506040611b41868287016119ee565b9150509250925092565b600060208284031215611b6157611b60611856565b5b6000611b6f84828501611aa3565b91505092915050565b611b81816119cd565b82525050565b6000602082019050611b9c6000830184611b78565b92915050565b611bab816118e5565b8114611bb657600080fd5b50565b600081359050611bc881611ba2565b92915050565b60008060408385031215611be557611be4611856565b5b6000611bf385828601611aa3565b9250506020611c0485828601611bb9565b9150509250929050565b600080fd5b600080fd5b7f4e487b7100000000000000000000000000000000000000000000000000000000600052604160045260246000fd5b611c5082611961565b810181811067ffffffffffffffff82111715611c6f57611c6e611c18565b5b80604052505050565b6000611c8261184c565b9050611c8e8282611c47565b919050565b600067ffffffffffffffff821115611cae57611cad611c18565b5b611cb782611961565b9050602081019050919050565b82818337600083830152505050565b6000611ce6611ce184611c93565b611c78565b905082815260208101848484011115611d0257611d01611c13565b5b611d0d848285611cc4565b509392505050565b600082601f830112611d2a57611d29611c0e565b5b8135611d3a848260208601611cd3565b91505092915050565b60008060008060808587031215611d5d57611d5c611856565b5b6000611d6b87828801611aa3565b9450506020611d7c87828801611aa3565b9350506040611d8d878288016119ee565b925050606085013567ffffffffffffffff811115611dae57611dad61185b565b5b611dba87828801611d15565b91505092959194509250565b60008060408385031215611ddd57611ddc611856565b5b6000611deb85828601611aa3565b9250506020611dfc85828601611aa3565b9150509250929050565b7f4e487b7100000000000000000000000000000000000000000000000000000000600052602260045260246000fd5b60006002820490506001821680611e4d57607f821691505b602082108103611e6057611e5f611e06565b5b50919050565b6000606082019050611e7b6000830186611a62565b611e886020830185611b78565b611e956040830184611a62565b949350505050565b7f4e487b7100000000000000000000000000000000000000000000000000000000600052601160045260246000fd5b6000611ed7826119cd565b91507fffffffffffffffffffffffffffffffffffffffffffffffffffffffffffffffff8203611f0957611f08611e9d565b5b600182019050919050565b600081905092915050565b6000611f2a8261191b565b611f348185611f14565b9350611f44818560208601611937565b80840191505092915050565b6000611f5c8285611f1f565b9150611f688284611f1f565b91508190509392505050565b600081519050919050565b600082825260208201905092915050565b6000611f9b82611f74565b611fa58185611f7f565b9350611fb5818560208601611937565b611fbe81611961565b840191505092915050565b6000608082019050611fde6000830187611a62565b611feb6020830186611a62565b611ff86040830185611b78565b818103606083015261200a8184611f90565b905095945050505050565b6000815190506120248161188c565b92915050565b6000602082840312156120405761203f611856565b5b600061204e84828501612015565b91505092915050565b7f4e487b7100000000000000000000000000000000000000000000000000000000600052601260045260246000fd5b600060408201905061209b6000830185611a62565b6120a86020830184611b78565b939250505056fea2646970667358221220395d41cf32b44b6e5bcee48fdad51697dbcc4140697f410e8f743f6ed3cd7ecf64736f6c63430008180033",
  "linkReferences": {},
  "deployedLinkReferences": {}
}