{
  "_format": "hh-sol-artifact-1",
  "contractName": "UserProfile",
  "sourceName": "contracts/UserProfile.sol",
  "abi": [
    {
      "inputs": [
        {
          "internalType": "address",
          "name": "_user",
          "type": "address"
        }
      ],
      "name": "getProfile",
      "outputs": [
        {
          "internalType": "string",
          "name": "",
          "type": "string"
        },
        {
          "internalType": "string",
          "name": "",
          "type": "string"
        },
        {
          "internalType": "string",
          "name": "",
          "type": "string"
        },
        {
          "internalType": "string",
          "name": "",
          "type": "string"
        },
        {
          "internalType": "string",
          "name": "",
          "type": "string"
        }
      ],
      "stateMutability": "view",
      "type": "function"
    },
    {
      "inputs": [
        {
          "internalType": "address",
          "name": "",
          "type": "address"
        }
      ],
      "name": "profiles",
      "outputs": [
        {
          "internalType": "string",
          "name": "name",
          "type": "string"
        },
        {
          "internalType": "string",
          "name": "email",
          "type": "string"
        },
        {
          "internalType": "string",
          "name": "phone",
          "type": "string"
        },
        {
          "internalType": "string",
          "name": "about",
          "type": "string"
        },
        {
          "internalType": "string",
          "name": "profileImage",
          "type": "string"
        }
      ],
      "stateMutability": "view",
      "type": "function"
    },
    {
      "inputs": [
        {
          "internalType": "string",
          "name": "_name",
          "type": "string"
        },
        {
          "internalType": "string",
          "name": "_email",
          "type": "string"
        },
        {
          "internalType": "string",
          "name": "_phone",
          "type": "string"
        },
        {
          "internalType": "string",
          "name": "_about",
          "type": "string"
        },
        {
          "internalType": "string",
          "name": "_profileImage",
          "type": "string"
        }
      ],
      "name": "setProfile",
      "outputs": [],
      "stateMutability": "nonpayable",
      "type": "function"
    }
  ],
  "bytecode": "0x608060405234801561001057600080fd5b50610ee0806100206000396000f3fe608060405234801561001057600080fd5b50600436106100415760003560e01c80630f53a47014610046578063614cffab1461007a578063bbe1562714610096575b600080fd5b610060600480360381019061005b9190610853565b6100ca565b604051610071959493929190610910565b60405180910390f35b610094600480360381019061008f9190610abb565b610426565b005b6100b060048036038101906100ab9190610853565b610503565b6040516100c1959493929190610910565b60405180910390f35b606080606080606060008060008873ffffffffffffffffffffffffffffffffffffffff1673ffffffffffffffffffffffffffffffffffffffff1681526020019081526020016000206040518060a001604052908160008201805461012d90610bf1565b80601f016020809104026020016040519081016040528092919081815260200182805461015990610bf1565b80156101a65780601f1061017b576101008083540402835291602001916101a6565b820191906000526020600020905b81548152906001019060200180831161018957829003601f168201915b505050505081526020016001820180546101bf90610bf1565b80601f01602080910402602001604051908101604052809291908181526020018280546101eb90610bf1565b80156102385780601f1061020d57610100808354040283529160200191610238565b820191906000526020600020905b81548152906001019060200180831161021b57829003601f168201915b5050505050815260200160028201805461025190610bf1565b80601f016020809104026020016040519081016040528092919081815260200182805461027d90610bf1565b80156102ca5780601f1061029f576101008083540402835291602001916102ca565b820191906000526020600020905b8154815290600101906020018083116102ad57829003601f168201915b505050505081526020016003820180546102e390610bf1565b80601f016020809104026020016040519081016040528092919081815260200182805461030f90610bf1565b801561035c5780601f106103315761010080835404028352916020019161035c565b820191906000526020600020905b81548152906001019060200180831161033f57829003601f168201915b5050505050815260200160048201805461037590610bf1565b80601f01602080910402602001604051908101604052809291908181526020018280546103a190610bf1565b80156103ee5780601f106103c3576101008083540402835291602001916103ee565b820191906000526020600020905b8154815290600101906020018083116103d157829003601f168201915b505050505081525050905080600001518160200151826040015183606001518460800151955095509550955095505091939590929450565b6040518060a00160405280868152602001858152602001848152602001838152602001828152506000803373ffffffffffffffffffffffffffffffffffffffff1673ffffffffffffffffffffffffffffffffffffffff16815260200190815260200160002060008201518160000190816104a09190610dd8565b5060208201518160010190816104b69190610dd8565b5060408201518160020190816104cc9190610dd8565b5060608201518160030190816104e29190610dd8565b5060808201518160040190816104f89190610dd8565b509050505050505050565b600060205280600052604060002060009150905080600001805461052690610bf1565b80601f016020809104026020016040519081016040528092919081815260200182805461055290610bf1565b801561059f5780601f106105745761010080835404028352916020019161059f565b820191906000526020600020905b81548152906001019060200180831161058257829003601f168201915b5050505050908060010180546105b490610bf1565b80601f01602080910402602001604051908101604052809291908181526020018280546105e090610bf1565b801561062d5780601f106106025761010080835404028352916020019161062d565b820191906000526020600020905b81548152906001019060200180831161061057829003601f168201915b50505050509080600201805461064290610bf1565b80601f016020809104026020016040519081016040528092919081815260200182805461066e90610bf1565b80156106bb5780601f10610690576101008083540402835291602001916106bb565b820191906000526020600020905b81548152906001019060200180831161069e57829003601f168201915b5050505050908060030180546106d090610bf1565b80601f01602080910402602001604051908101604052809291908181526020018280546106fc90610bf1565b80156107495780601f1061071e57610100808354040283529160200191610749565b820191906000526020600020905b81548152906001019060200180831161072c57829003601f168201915b50505050509080600401805461075e90610bf1565b80601f016020809104026020016040519081016040528092919081815260200182805461078a90610bf1565b80156107d75780601f106107ac576101008083540402835291602001916107d7565b820191906000526020600020905b8154815290600101906020018083116107ba57829003601f168201915b5050505050905085565b6000604051905090565b600080fd5b600080fd5b600073ffffffffffffffffffffffffffffffffffffffff82169050919050565b6000610820826107f5565b9050919050565b61083081610815565b811461083b57600080fd5b50565b60008135905061084d81610827565b92915050565b600060208284031215610869576108686107eb565b5b60006108778482850161083e565b91505092915050565b600081519050919050565b600082825260208201905092915050565b60005b838110156108ba57808201518184015260208101905061089f565b60008484015250505050565b6000601f19601f8301169050919050565b60006108e282610880565b6108ec818561088b565b93506108fc81856020860161089c565b610905816108c6565b840191505092915050565b600060a082019050818103600083015261092a81886108d7565b9050818103602083015261093e81876108d7565b9050818103604083015261095281866108d7565b9050818103606083015261096681856108d7565b9050818103608083015261097a81846108d7565b90509695505050505050565b600080fd5b600080fd5b7f4e487b7100000000000000000000000000000000000000000000000000000000600052604160045260246000fd5b6109c8826108c6565b810181811067ffffffffffffffff821117156109e7576109e6610990565b5b80604052505050565b60006109fa6107e1565b9050610a0682826109bf565b919050565b600067ffffffffffffffff821115610a2657610a25610990565b5b610a2f826108c6565b9050602081019050919050565b82818337600083830152505050565b6000610a5e610a5984610a0b565b6109f0565b905082815260208101848484011115610a7a57610a7961098b565b5b610a85848285610a3c565b509392505050565b600082601f830112610aa257610aa1610986565b5b8135610ab2848260208601610a4b565b91505092915050565b600080600080600060a08688031215610ad757610ad66107eb565b5b600086013567ffffffffffffffff811115610af557610af46107f0565b5b610b0188828901610a8d565b955050602086013567ffffffffffffffff811115610b2257610b216107f0565b5b610b2e88828901610a8d565b945050604086013567ffffffffffffffff811115610b4f57610b4e6107f0565b5b610b5b88828901610a8d565b935050606086013567ffffffffffffffff811115610b7c57610b7b6107f0565b5b610b8888828901610a8d565b925050608086013567ffffffffffffffff811115610ba957610ba86107f0565b5b610bb588828901610a8d565b9150509295509295909350565b7f4e487b7100000000000000000000000000000000000000000000000000000000600052602260045260246000fd5b60006002820490506001821680610c0957607f821691505b602082108103610c1c57610c1b610bc2565b5b50919050565b60008190508160005260206000209050919050565b60006020601f8301049050919050565b600082821b905092915050565b600060088302610c847fffffffffffffffffffffffffffffffffffffffffffffffffffffffffffffffff82610c47565b610c8e8683610c47565b95508019841693508086168417925050509392505050565b6000819050919050565b6000819050919050565b6000610cd5610cd0610ccb84610ca6565b610cb0565b610ca6565b9050919050565b6000819050919050565b610cef83610cba565b610d03610cfb82610cdc565b848454610c54565b825550505050565b600090565b610d18610d0b565b610d23818484610ce6565b505050565b5b81811015610d4757610d3c600082610d10565b600181019050610d29565b5050565b601f821115610d8c57610d5d81610c22565b610d6684610c37565b81016020851015610d75578190505b610d89610d8185610c37565b830182610d28565b50505b505050565b600082821c905092915050565b6000610daf60001984600802610d91565b1980831691505092915050565b6000610dc88383610d9e565b9150826002028217905092915050565b610de182610880565b67ffffffffffffffff811115610dfa57610df9610990565b5b610e048254610bf1565b610e0f828285610d4b565b600060209050601f831160018114610e425760008415610e30578287015190505b610e3a8582610dbc565b865550610ea2565b601f198416610e5086610c22565b60005b82811015610e7857848901518255600182019150602085019450602081019050610e53565b86831015610e955784890151610e91601f891682610d9e565b8355505b6001600288020188555050505b50505050505056fea2646970667358221220d9b05b3ecf39287af66a3198e459b76829c571f0d6be2200e370724e5bd15c6364736f6c63430008180033",
  "linkReferences": {},
  "deployedLinkReferences": {}
}