{
  "_format": "hh-sol-artifact-1",
  "contractName": "UserAuth",
  "sourceName": "contracts/UserAuth.sol",
  "abi": [
    {
      "inputs": [
        {
          "internalType": "bytes32",
          "name": "passwordHash",
          "type": "bytes32"
        }
      ],
      "name": "login",
      "outputs": [
        {
          "internalType": "bool",
          "name": "",
          "type": "bool"
        }
      ],
      "stateMutability": "view",
      "type": "function"
    },
    {
      "inputs": [
        {
          "internalType": "bytes32",
          "name": "passwordHash",
          "type": "bytes32"
        }
      ],
      "name": "register",
      "outputs": [],
      "stateMutability": "nonpayable",
      "type": "function"
    }
  ],
  "bytecode": "0x608060405234801561001057600080fd5b506102eb806100206000396000f3fe608060405234801561001057600080fd5b50600436106100365760003560e01c8063879281c41461003b578063e1fa8e841461006b575b600080fd5b610055600480360381019061005091906101d5565b610087565b604051610062919061021d565b60405180910390f35b610085600480360381019061008091906101d5565b6100d1565b005b6000816000803373ffffffffffffffffffffffffffffffffffffffff1673ffffffffffffffffffffffffffffffffffffffff16815260200190815260200160002054149050919050565b6000801b6000803373ffffffffffffffffffffffffffffffffffffffff1673ffffffffffffffffffffffffffffffffffffffff1681526020019081526020016000205414610154576040517f08c379a000000000000000000000000000000000000000000000000000000000815260040161014b90610295565b60405180910390fd5b806000803373ffffffffffffffffffffffffffffffffffffffff1673ffffffffffffffffffffffffffffffffffffffff1681526020019081526020016000208190555050565b600080fd5b6000819050919050565b6101b28161019f565b81146101bd57600080fd5b50565b6000813590506101cf816101a9565b92915050565b6000602082840312156101eb576101ea61019a565b5b60006101f9848285016101c0565b91505092915050565b60008115159050919050565b61021781610202565b82525050565b6000602082019050610232600083018461020e565b92915050565b600082825260208201905092915050565b7f5573657220616c72656164792072656769737465726564000000000000000000600082015250565b600061027f601783610238565b915061028a82610249565b602082019050919050565b600060208201905081810360008301526102ae81610272565b905091905056fea2646970667358221220630e20ddd55111df72ebcb10b429305c50f5983c1f12ad46ca26020fcd9cccb464736f6c63430008180033",
  "linkReferences": {},
  "deployedLinkReferences": {}
}